{
  "_format": "hh-sol-artifact-1",
  "contractName": "MockUniswapV2Pair",
  "sourceName": "contracts/MockUniswapV2Pair.sol",
  "abi": [
    {
      "inputs": [],
      "name": "getReserves",
      "outputs": [
        {
          "internalType": "uint112",
          "name": "",
          "type": "uint112"
        },
        {
          "internalType": "uint112",
          "name": "",
          "type": "uint112"
        },
        {
          "internalType": "uint32",
          "name": "",
          "type": "uint32"
        }
      ],
      "stateMutability": "view",
      "type": "function"
    },
    {
      "inputs": [
        {
          "internalType": "uint112",
          "name": "reserve0",
          "type": "uint112"
        },
        {
          "internalType": "uint112",
          "name": "reserve1",
          "type": "uint112"
        }
      ],
      "name": "setReserves",
      "outputs": [],
      "stateMutability": "nonpayable",
      "type": "function"
    },
    {
      "inputs": [
        {
          "internalType": "address",
          "name": "_newToken0",
          "type": "address"
        }
      ],
      "name": "setToken0",
      "outputs": [],
      "stateMutability": "nonpayable",
      "type": "function"
    },
    {
      "inputs": [
        {
          "internalType": "address",
          "name": "_newToken1",
          "type": "address"
        }
      ],
      "name": "setToken1",
      "outputs": [],
      "stateMutability": "nonpayable",
      "type": "function"
    },
    {
      "inputs": [],
      "name": "token0",
      "outputs": [
        {
          "internalType": "address",
          "name": "",
          "type": "address"
        }
      ],
      "stateMutability": "view",
      "type": "function"
    },
    {
      "inputs": [],
      "name": "token1",
      "outputs": [
        {
          "internalType": "address",
          "name": "",
          "type": "address"
        }
      ],
      "stateMutability": "view",
      "type": "function"
    }
  ],
  "bytecode": "0x6080604052348015600f57600080fd5b506104868061001f6000396000f3fe608060405234801561001057600080fd5b50600436106100625760003560e01c80630902f1ac146100675780630dfe16811461008757806375ea5f2e146100a5578063b79ea884146100c1578063c6e426bd146100dd578063d21220a7146100f9575b600080fd5b61006f610117565b60405161007e939291906102f3565b60405180910390f35b61008f610162565b60405161009c919061036b565b60405180910390f35b6100bf60048036038101906100ba91906103b7565b61018c565b005b6100db60048036038101906100d69190610423565b6101f9565b005b6100f760048036038101906100f29190610423565b61023d565b005b610101610281565b60405161010e919061036b565b60405180910390f35b60008060008060009054906101000a90046dffffffffffffffffffffffffffff166000600e9054906101000a90046dffffffffffffffffffffffffffff166000925092509250909192565b6000600160009054906101000a900473ffffffffffffffffffffffffffffffffffffffff16905090565b816000806101000a8154816dffffffffffffffffffffffffffff02191690836dffffffffffffffffffffffffffff160217905550806000600e6101000a8154816dffffffffffffffffffffffffffff02191690836dffffffffffffffffffffffffffff1602179055505050565b80600260006101000a81548173ffffffffffffffffffffffffffffffffffffffff021916908373ffffffffffffffffffffffffffffffffffffffff16021790555050565b80600160006101000a81548173ffffffffffffffffffffffffffffffffffffffff021916908373ffffffffffffffffffffffffffffffffffffffff16021790555050565b6000600260009054906101000a900473ffffffffffffffffffffffffffffffffffffffff16905090565b60006dffffffffffffffffffffffffffff82169050919050565b6102ce816102ab565b82525050565b600063ffffffff82169050919050565b6102ed816102d4565b82525050565b600060608201905061030860008301866102c5565b61031560208301856102c5565b61032260408301846102e4565b949350505050565b600073ffffffffffffffffffffffffffffffffffffffff82169050919050565b60006103558261032a565b9050919050565b6103658161034a565b82525050565b6000602082019050610380600083018461035c565b92915050565b600080fd5b610394816102ab565b811461039f57600080fd5b50565b6000813590506103b18161038b565b92915050565b600080604083850312156103ce576103cd610386565b5b60006103dc858286016103a2565b92505060206103ed858286016103a2565b9150509250929050565b6104008161034a565b811461040b57600080fd5b50565b60008135905061041d816103f7565b92915050565b60006020828403121561043957610438610386565b5b60006104478482850161040e565b9150509291505056fea26469706673582212201dd1f0a2ba76ee4e73eebec0389fad84135dc52822f02e11499668fa17a1621764736f6c634300081c0033",
  "linkReferences": {},
  "deployedLinkReferences": {}
}