{
  "_format": "hh-sol-artifact-1",
  "contractName": "SimStable",
  "sourceName": "contracts/SimStable.sol",
  "abi": [
    {
      "inputs": [],
      "stateMutability": "nonpayable",
      "type": "constructor"
    },
    {
      "inputs": [
        {
          "internalType": "address",
          "name": "spender",
          "type": "address"
        },
        {
          "internalType": "uint256",
          "name": "allowance",
          "type": "uint256"
        },
        {
          "internalType": "uint256",
          "name": "needed",
          "type": "uint256"
        }
      ],
      "name": "ERC20InsufficientAllowance",
      "type": "error"
    },
    {
      "inputs": [
        {
          "internalType": "address",
          "name": "sender",
          "type": "address"
        },
        {
          "internalType": "uint256",
          "name": "balance",
          "type": "uint256"
        },
        {
          "internalType": "uint256",
          "name": "needed",
          "type": "uint256"
        }
      ],
      "name": "ERC20InsufficientBalance",
      "type": "error"
    },
    {
      "inputs": [
        {
          "internalType": "address",
          "name": "approver",
          "type": "address"
        }
      ],
      "name": "ERC20InvalidApprover",
      "type": "error"
    },
    {
      "inputs": [
        {
          "internalType": "address",
          "name": "receiver",
          "type": "address"
        }
      ],
      "name": "ERC20InvalidReceiver",
      "type": "error"
    },
    {
      "inputs": [
        {
          "internalType": "address",
          "name": "sender",
          "type": "address"
        }
      ],
      "name": "ERC20InvalidSender",
      "type": "error"
    },
    {
      "inputs": [
        {
          "internalType": "address",
          "name": "spender",
          "type": "address"
        }
      ],
      "name": "ERC20InvalidSpender",
      "type": "error"
    },
    {
      "anonymous": false,
      "inputs": [
        {
          "indexed": true,
          "internalType": "address",
          "name": "owner",
          "type": "address"
        },
        {
          "indexed": true,
          "internalType": "address",
          "name": "spender",
          "type": "address"
        },
        {
          "indexed": false,
          "internalType": "uint256",
          "name": "value",
          "type": "uint256"
        }
      ],
      "name": "Approval",
      "type": "event"
    },
    {
      "anonymous": false,
      "inputs": [
        {
          "indexed": true,
          "internalType": "address",
          "name": "from",
          "type": "address"
        },
        {
          "indexed": true,
          "internalType": "address",
          "name": "to",
          "type": "address"
        },
        {
          "indexed": false,
          "internalType": "uint256",
          "name": "value",
          "type": "uint256"
        }
      ],
      "name": "Transfer",
      "type": "event"
    },
    {
      "inputs": [
        {
          "internalType": "address",
          "name": "owner",
          "type": "address"
        },
        {
          "internalType": "address",
          "name": "spender",
          "type": "address"
        }
      ],
      "name": "allowance",
      "outputs": [
        {
          "internalType": "uint256",
          "name": "",
          "type": "uint256"
        }
      ],
      "stateMutability": "view",
      "type": "function"
    },
    {
      "inputs": [
        {
          "internalType": "address",
          "name": "spender",
          "type": "address"
        },
        {
          "internalType": "uint256",
          "name": "value",
          "type": "uint256"
        }
      ],
      "name": "approve",
      "outputs": [
        {
          "internalType": "bool",
          "name": "",
          "type": "bool"
        }
      ],
      "stateMutability": "nonpayable",
      "type": "function"
    },
    {
      "inputs": [
        {
          "internalType": "address",
          "name": "account",
          "type": "address"
        }
      ],
      "name": "balanceOf",
      "outputs": [
        {
          "internalType": "uint256",
          "name": "",
          "type": "uint256"
        }
      ],
      "stateMutability": "view",
      "type": "function"
    },
    {
      "inputs": [
        {
          "internalType": "address",
          "name": "from",
          "type": "address"
        },
        {
          "internalType": "uint256",
          "name": "amount",
          "type": "uint256"
        }
      ],
      "name": "burn",
      "outputs": [],
      "stateMutability": "nonpayable",
      "type": "function"
    },
    {
      "inputs": [],
      "name": "decimals",
      "outputs": [
        {
          "internalType": "uint8",
          "name": "",
          "type": "uint8"
        }
      ],
      "stateMutability": "view",
      "type": "function"
    },
    {
      "inputs": [
        {
          "internalType": "address",
          "name": "to",
          "type": "address"
        },
        {
          "internalType": "uint256",
          "name": "amount",
          "type": "uint256"
        }
      ],
      "name": "mint",
      "outputs": [],
      "stateMutability": "nonpayable",
      "type": "function"
    },
    {
      "inputs": [],
      "name": "name",
      "outputs": [
        {
          "internalType": "string",
          "name": "",
          "type": "string"
        }
      ],
      "stateMutability": "view",
      "type": "function"
    },
    {
      "inputs": [
        {
          "internalType": "address",
          "name": "_vault",
          "type": "address"
        }
      ],
      "name": "setVault",
      "outputs": [],
      "stateMutability": "nonpayable",
      "type": "function"
    },
    {
      "inputs": [],
      "name": "symbol",
      "outputs": [
        {
          "internalType": "string",
          "name": "",
          "type": "string"
        }
      ],
      "stateMutability": "view",
      "type": "function"
    },
    {
      "inputs": [],
      "name": "totalSupply",
      "outputs": [
        {
          "internalType": "uint256",
          "name": "",
          "type": "uint256"
        }
      ],
      "stateMutability": "view",
      "type": "function"
    },
    {
      "inputs": [
        {
          "internalType": "address",
          "name": "to",
          "type": "address"
        },
        {
          "internalType": "uint256",
          "name": "value",
          "type": "uint256"
        }
      ],
      "name": "transfer",
      "outputs": [
        {
          "internalType": "bool",
          "name": "",
          "type": "bool"
        }
      ],
      "stateMutability": "nonpayable",
      "type": "function"
    },
    {
      "inputs": [
        {
          "internalType": "address",
          "name": "from",
          "type": "address"
        },
        {
          "internalType": "address",
          "name": "to",
          "type": "address"
        },
        {
          "internalType": "uint256",
          "name": "value",
          "type": "uint256"
        }
      ],
      "name": "transferFrom",
      "outputs": [
        {
          "internalType": "bool",
          "name": "",
          "type": "bool"
        }
      ],
      "stateMutability": "nonpayable",
      "type": "function"
    },
    {
      "inputs": [],
      "name": "vault",
      "outputs": [
        {
          "internalType": "address",
          "name": "",
          "type": "address"
        }
      ],
      "stateMutability": "view",
      "type": "function"
    }
  ],
  "bytecode": "0x608060405234801561001057600080fd5b506040518060400160405280600981526020017f53696d537461626c6500000000000000000000000000000000000000000000008152506040518060400160405280600481526020017f53494d5300000000000000000000000000000000000000000000000000000000815250816003908161008c91906102f4565b50806004908161009c91906102f4565b5050506103c6565b600081519050919050565b7f4e487b7100000000000000000000000000000000000000000000000000000000600052604160045260246000fd5b7f4e487b7100000000000000000000000000000000000000000000000000000000600052602260045260246000fd5b6000600282049050600182168061012557607f821691505b602082108103610138576101376100de565b5b50919050565b60008190508160005260206000209050919050565b60006020601f8301049050919050565b600082821b905092915050565b6000600883026101a07fffffffffffffffffffffffffffffffffffffffffffffffffffffffffffffffff82610163565b6101aa8683610163565b95508019841693508086168417925050509392505050565b6000819050919050565b6000819050919050565b60006101f16101ec6101e7846101c2565b6101cc565b6101c2565b9050919050565b6000819050919050565b61020b836101d6565b61021f610217826101f8565b848454610170565b825550505050565b600090565b610234610227565b61023f818484610202565b505050565b5b818110156102635761025860008261022c565b600181019050610245565b5050565b601f8211156102a8576102798161013e565b61028284610153565b81016020851015610291578190505b6102a561029d85610153565b830182610244565b50505b505050565b600082821c905092915050565b60006102cb600019846008026102ad565b1980831691505092915050565b60006102e483836102ba565b9150826002028217905092915050565b6102fd826100a4565b67ffffffffffffffff811115610316576103156100af565b5b610320825461010d565b61032b828285610267565b600060209050601f83116001811461035e576000841561034c578287015190505b61035685826102d8565b8655506103be565b601f19841661036c8661013e565b60005b828110156103945784890151825560018201915060208501945060208101905061036f565b868310156103b157848901516103ad601f8916826102ba565b8355505b6001600288020188555050505b505050505050565b611382806103d56000396000f3fe608060405234801561001057600080fd5b50600436106100cf5760003560e01c80636817031b1161008c5780639dc29fac116100665780639dc29fac14610214578063a9059cbb14610230578063dd62ed3e14610260578063fbfa77cf14610290576100cf565b80636817031b146101aa57806370a08231146101c657806395d89b41146101f6576100cf565b806306fdde03146100d4578063095ea7b3146100f257806318160ddd1461012257806323b872dd14610140578063313ce5671461017057806340c10f191461018e575b600080fd5b6100dc6102ae565b6040516100e99190610e92565b60405180910390f35b61010c60048036038101906101079190610f4d565b610340565b6040516101199190610fa8565b60405180910390f35b61012a610363565b6040516101379190610fd2565b60405180910390f35b61015a60048036038101906101559190610fed565b61036d565b6040516101679190610fa8565b60405180910390f35b61017861039c565b604051610185919061105c565b60405180910390f35b6101a860048036038101906101a39190610f4d565b6103a5565b005b6101c460048036038101906101bf9190611077565b610443565b005b6101e060048036038101906101db9190611077565b610518565b6040516101ed9190610fd2565b60405180910390f35b6101fe610560565b60405161020b9190610e92565b60405180910390f35b61022e60048036038101906102299190610f4d565b6105f2565b005b61024a60048036038101906102459190610f4d565b610690565b6040516102579190610fa8565b60405180910390f35b61027a600480360381019061027591906110a4565b6106b3565b6040516102879190610fd2565b60405180910390f35b61029861073a565b6040516102a591906110f3565b60405180910390f35b6060600380546102bd9061113d565b80601f01602080910402602001604051908101604052809291908181526020018280546102e99061113d565b80156103365780601f1061030b57610100808354040283529160200191610336565b820191906000526020600020905b81548152906001019060200180831161031957829003601f168201915b5050505050905090565b60008061034b610760565b9050610358818585610768565b600191505092915050565b6000600254905090565b600080610378610760565b905061038585828561077a565b61039085858561080e565b60019150509392505050565b60006012905090565b600560009054906101000a900473ffffffffffffffffffffffffffffffffffffffff1673ffffffffffffffffffffffffffffffffffffffff163373ffffffffffffffffffffffffffffffffffffffff1614610435576040517f08c379a000000000000000000000000000000000000000000000000000000000815260040161042c906111ba565b60405180910390fd5b61043f8282610902565b5050565b600073ffffffffffffffffffffffffffffffffffffffff16600560009054906101000a900473ffffffffffffffffffffffffffffffffffffffff1673ffffffffffffffffffffffffffffffffffffffff16146104d4576040517f08c379a00000000000000000000000000000000000000000000000000000000081526004016104cb90611226565b60405180910390fd5b80600560006101000a81548173ffffffffffffffffffffffffffffffffffffffff021916908373ffffffffffffffffffffffffffffffffffffffff16021790555050565b60008060008373ffffffffffffffffffffffffffffffffffffffff1673ffffffffffffffffffffffffffffffffffffffff168152602001908152602001600020549050919050565b60606004805461056f9061113d565b80601f016020809104026020016040519081016040528092919081815260200182805461059b9061113d565b80156105e85780601f106105bd576101008083540402835291602001916105e8565b820191906000526020600020905b8154815290600101906020018083116105cb57829003601f168201915b5050505050905090565b600560009054906101000a900473ffffffffffffffffffffffffffffffffffffffff1673ffffffffffffffffffffffffffffffffffffffff163373ffffffffffffffffffffffffffffffffffffffff1614610682576040517f08c379a000000000000000000000000000000000000000000000000000000000815260040161067990611292565b60405180910390fd5b61068c8282610984565b5050565b60008061069b610760565b90506106a881858561080e565b600191505092915050565b6000600160008473ffffffffffffffffffffffffffffffffffffffff1673ffffffffffffffffffffffffffffffffffffffff16815260200190815260200160002060008373ffffffffffffffffffffffffffffffffffffffff1673ffffffffffffffffffffffffffffffffffffffff16815260200190815260200160002054905092915050565b600560009054906101000a900473ffffffffffffffffffffffffffffffffffffffff1681565b600033905090565b6107758383836001610a06565b505050565b600061078684846106b3565b90507fffffffffffffffffffffffffffffffffffffffffffffffffffffffffffffffff811461080857818110156107f8578281836040517ffb8f41b20000000000000000000000000000000000000000000000000000000081526004016107ef939291906112b2565b60405180910390fd5b61080784848484036000610a06565b5b50505050565b600073ffffffffffffffffffffffffffffffffffffffff168373ffffffffffffffffffffffffffffffffffffffff16036108805760006040517f96c6fd1e00000000000000000000000000000000000000000000000000000000815260040161087791906110f3565b60405180910390fd5b600073ffffffffffffffffffffffffffffffffffffffff168273ffffffffffffffffffffffffffffffffffffffff16036108f25760006040517fec442f050000000000000000000000000000000000000000000000000000000081526004016108e991906110f3565b60405180910390fd5b6108fd838383610bdd565b505050565b600073ffffffffffffffffffffffffffffffffffffffff168273ffffffffffffffffffffffffffffffffffffffff16036109745760006040517fec442f0500000000000000000000000000000000000000000000000000000000815260040161096b91906110f3565b60405180910390fd5b61098060008383610bdd565b5050565b600073ffffffffffffffffffffffffffffffffffffffff168273ffffffffffffffffffffffffffffffffffffffff16036109f65760006040517f96c6fd1e0000000000000000000000000000000000000000000000000000000081526004016109ed91906110f3565b60405180910390fd5b610a0282600083610bdd565b5050565b600073ffffffffffffffffffffffffffffffffffffffff168473ffffffffffffffffffffffffffffffffffffffff1603610a785760006040517fe602df05000000000000000000000000000000000000000000000000000000008152600401610a6f91906110f3565b60405180910390fd5b600073ffffffffffffffffffffffffffffffffffffffff168373ffffffffffffffffffffffffffffffffffffffff1603610aea5760006040517f94280d62000000000000000000000000000000000000000000000000000000008152600401610ae191906110f3565b60405180910390fd5b81600160008673ffffffffffffffffffffffffffffffffffffffff1673ffffffffffffffffffffffffffffffffffffffff16815260200190815260200160002060008573ffffffffffffffffffffffffffffffffffffffff1673ffffffffffffffffffffffffffffffffffffffff168152602001908152602001600020819055508015610bd7578273ffffffffffffffffffffffffffffffffffffffff168473ffffffffffffffffffffffffffffffffffffffff167f8c5be1e5ebec7d5bd14f71427d1e84f3dd0314c0f7b2291e5b200ac8c7c3b92584604051610bce9190610fd2565b60405180910390a35b50505050565b600073ffffffffffffffffffffffffffffffffffffffff168373ffffffffffffffffffffffffffffffffffffffff1603610c2f578060026000828254610c239190611318565b92505081905550610d02565b60008060008573ffffffffffffffffffffffffffffffffffffffff1673ffffffffffffffffffffffffffffffffffffffff16815260200190815260200160002054905081811015610cbb578381836040517fe450d38c000000000000000000000000000000000000000000000000000000008152600401610cb2939291906112b2565b60405180910390fd5b8181036000808673ffffffffffffffffffffffffffffffffffffffff1673ffffffffffffffffffffffffffffffffffffffff16815260200190815260200160002081905550505b600073ffffffffffffffffffffffffffffffffffffffff168273ffffffffffffffffffffffffffffffffffffffff1603610d4b5780600260008282540392505081905550610d98565b806000808473ffffffffffffffffffffffffffffffffffffffff1673ffffffffffffffffffffffffffffffffffffffff168152602001908152602001600020600082825401925050819055505b8173ffffffffffffffffffffffffffffffffffffffff168373ffffffffffffffffffffffffffffffffffffffff167fddf252ad1be2c89b69c2b068fc378daa952ba7f163c4a11628f55a4df523b3ef83604051610df59190610fd2565b60405180910390a3505050565b600081519050919050565b600082825260208201905092915050565b60005b83811015610e3c578082015181840152602081019050610e21565b60008484015250505050565b6000601f19601f8301169050919050565b6000610e6482610e02565b610e6e8185610e0d565b9350610e7e818560208601610e1e565b610e8781610e48565b840191505092915050565b60006020820190508181036000830152610eac8184610e59565b905092915050565b600080fd5b600073ffffffffffffffffffffffffffffffffffffffff82169050919050565b6000610ee482610eb9565b9050919050565b610ef481610ed9565b8114610eff57600080fd5b50565b600081359050610f1181610eeb565b92915050565b6000819050919050565b610f2a81610f17565b8114610f3557600080fd5b50565b600081359050610f4781610f21565b92915050565b60008060408385031215610f6457610f63610eb4565b5b6000610f7285828601610f02565b9250506020610f8385828601610f38565b9150509250929050565b60008115159050919050565b610fa281610f8d565b82525050565b6000602082019050610fbd6000830184610f99565b92915050565b610fcc81610f17565b82525050565b6000602082019050610fe76000830184610fc3565b92915050565b60008060006060848603121561100657611005610eb4565b5b600061101486828701610f02565b935050602061102586828701610f02565b925050604061103686828701610f38565b9150509250925092565b600060ff82169050919050565b61105681611040565b82525050565b6000602082019050611071600083018461104d565b92915050565b60006020828403121561108d5761108c610eb4565b5b600061109b84828501610f02565b91505092915050565b600080604083850312156110bb576110ba610eb4565b5b60006110c985828601610f02565b92505060206110da85828601610f02565b9150509250929050565b6110ed81610ed9565b82525050565b600060208201905061110860008301846110e4565b92915050565b7f4e487b7100000000000000000000000000000000000000000000000000000000600052602260045260246000fd5b6000600282049050600182168061115557607f821691505b6020821081036111685761116761110e565b5b50919050565b7f4f6e6c7920746865207661756c742063616e206d696e74000000000000000000600082015250565b60006111a4601783610e0d565b91506111af8261116e565b602082019050919050565b600060208201905081810360008301526111d381611197565b9050919050565b7f5661756c7420616c726561647920736574000000000000000000000000000000600082015250565b6000611210601183610e0d565b915061121b826111da565b602082019050919050565b6000602082019050818103600083015261123f81611203565b9050919050565b7f4f6e6c7920746865207661756c742063616e206275726e000000000000000000600082015250565b600061127c601783610e0d565b915061128782611246565b602082019050919050565b600060208201905081810360008301526112ab8161126f565b9050919050565b60006060820190506112c760008301866110e4565b6112d46020830185610fc3565b6112e16040830184610fc3565b949350505050565b7f4e487b7100000000000000000000000000000000000000000000000000000000600052601160045260246000fd5b600061132382610f17565b915061132e83610f17565b9250828201905080821115611346576113456112e9565b5b9291505056fea26469706673582212208bb1488e32261c203cd63531db8e1b70b20d0e8c2261c5f1e5617a8e15be426964736f6c634300081c0033",
  "linkReferences": {},
  "deployedLinkReferences": {}
}