{
  "_format": "hh-sol-artifact-1",
  "contractName": "CentralVault",
  "sourceName": "contracts/CentralVault.sol",
  "abi": [
    {
      "inputs": [
        {
          "internalType": "address",
          "name": "_simStable",
          "type": "address"
        },
        {
          "internalType": "address",
          "name": "_simGov",
          "type": "address"
        },
        {
          "internalType": "address",
          "name": "_collateralToken",
          "type": "address"
        },
        {
          "internalType": "address",
          "name": "_simStablePair",
          "type": "address"
        },
        {
          "internalType": "address",
          "name": "_simGovPair",
          "type": "address"
        }
      ],
      "stateMutability": "nonpayable",
      "type": "constructor"
    },
    {
      "anonymous": false,
      "inputs": [
        {
          "indexed": true,
          "internalType": "address",
          "name": "user",
          "type": "address"
        },
        {
          "indexed": false,
          "internalType": "uint256",
          "name": "govAmount",
          "type": "uint256"
        },
        {
          "indexed": false,
          "internalType": "uint256",
          "name": "collateralReturned",
          "type": "uint256"
        }
      ],
      "name": "BuybackExecuted",
      "type": "event"
    },
    {
      "anonymous": false,
      "inputs": [
        {
          "indexed": false,
          "internalType": "uint256",
          "name": "newCR",
          "type": "uint256"
        }
      ],
      "name": "CollateralRatioAdjusted",
      "type": "event"
    },
    {
      "anonymous": false,
      "inputs": [
        {
          "indexed": false,
          "internalType": "uint256",
          "name": "newCR",
          "type": "uint256"
        }
      ],
      "name": "CollateralRatioUpdated",
      "type": "event"
    },
    {
      "anonymous": false,
      "inputs": [
        {
          "indexed": true,
          "internalType": "address",
          "name": "user",
          "type": "address"
        },
        {
          "indexed": false,
          "internalType": "uint256",
          "name": "collateralAmount",
          "type": "uint256"
        },
        {
          "indexed": false,
          "internalType": "uint256",
          "name": "govBurned",
          "type": "uint256"
        },
        {
          "indexed": false,
          "internalType": "uint256",
          "name": "stableMinted",
          "type": "uint256"
        }
      ],
      "name": "Minted",
      "type": "event"
    },
    {
      "anonymous": false,
      "inputs": [
        {
          "indexed": false,
          "internalType": "uint256",
          "name": "simStablePrice",
          "type": "uint256"
        },
        {
          "indexed": false,
          "internalType": "uint256",
          "name": "simGovPrice",
          "type": "uint256"
        }
      ],
      "name": "PricesUpdated",
      "type": "event"
    },
    {
      "anonymous": false,
      "inputs": [
        {
          "indexed": true,
          "internalType": "address",
          "name": "user",
          "type": "address"
        },
        {
          "indexed": false,
          "internalType": "uint256",
          "name": "collateralAdded",
          "type": "uint256"
        },
        {
          "indexed": false,
          "internalType": "uint256",
          "name": "govMinted",
          "type": "uint256"
        }
      ],
      "name": "ReCollateralized",
      "type": "event"
    },
    {
      "anonymous": false,
      "inputs": [
        {
          "indexed": true,
          "internalType": "address",
          "name": "user",
          "type": "address"
        },
        {
          "indexed": false,
          "internalType": "uint256",
          "name": "stableAmount",
          "type": "uint256"
        },
        {
          "indexed": false,
          "internalType": "uint256",
          "name": "collateralOut",
          "type": "uint256"
        },
        {
          "indexed": false,
          "internalType": "uint256",
          "name": "govMinted",
          "type": "uint256"
        }
      ],
      "name": "Redeemed",
      "type": "event"
    },
    {
      "inputs": [],
      "name": "adjustCollateralRatio",
      "outputs": [],
      "stateMutability": "nonpayable",
      "type": "function"
    },
    {
      "inputs": [],
      "name": "adjustmentCoefficient",
      "outputs": [
        {
          "internalType": "uint256",
          "name": "",
          "type": "uint256"
        }
      ],
      "stateMutability": "view",
      "type": "function"
    },
    {
      "inputs": [],
      "name": "admin",
      "outputs": [
        {
          "internalType": "address",
          "name": "",
          "type": "address"
        }
      ],
      "stateMutability": "view",
      "type": "function"
    },
    {
      "inputs": [],
      "name": "buybackRatio",
      "outputs": [
        {
          "internalType": "uint256",
          "name": "",
          "type": "uint256"
        }
      ],
      "stateMutability": "view",
      "type": "function"
    },
    {
      "inputs": [
        {
          "internalType": "uint256",
          "name": "govAmount",
          "type": "uint256"
        }
      ],
      "name": "buybackSimGov",
      "outputs": [],
      "stateMutability": "nonpayable",
      "type": "function"
    },
    {
      "inputs": [],
      "name": "collateralRatio",
      "outputs": [
        {
          "internalType": "uint256",
          "name": "",
          "type": "uint256"
        }
      ],
      "stateMutability": "view",
      "type": "function"
    },
    {
      "inputs": [],
      "name": "collateralToken",
      "outputs": [
        {
          "internalType": "contract IERC20",
          "name": "",
          "type": "address"
        }
      ],
      "stateMutability": "view",
      "type": "function"
    },
    {
      "inputs": [
        {
          "internalType": "address",
          "name": "pair",
          "type": "address"
        },
        {
          "internalType": "address",
          "name": "token",
          "type": "address"
        }
      ],
      "name": "getTokenPrice",
      "outputs": [
        {
          "internalType": "uint256",
          "name": "price",
          "type": "uint256"
        }
      ],
      "stateMutability": "view",
      "type": "function"
    },
    {
      "inputs": [],
      "name": "maxCR",
      "outputs": [
        {
          "internalType": "uint256",
          "name": "",
          "type": "uint256"
        }
      ],
      "stateMutability": "view",
      "type": "function"
    },
    {
      "inputs": [],
      "name": "maxCollateralRatio",
      "outputs": [
        {
          "internalType": "uint256",
          "name": "",
          "type": "uint256"
        }
      ],
      "stateMutability": "view",
      "type": "function"
    },
    {
      "inputs": [],
      "name": "minCR",
      "outputs": [
        {
          "internalType": "int256",
          "name": "",
          "type": "int256"
        }
      ],
      "stateMutability": "view",
      "type": "function"
    },
    {
      "inputs": [],
      "name": "minCollateralRatio",
      "outputs": [
        {
          "internalType": "uint256",
          "name": "",
          "type": "uint256"
        }
      ],
      "stateMutability": "view",
      "type": "function"
    },
    {
      "inputs": [
        {
          "internalType": "uint256",
          "name": "collateralAmount",
          "type": "uint256"
        },
        {
          "internalType": "uint256",
          "name": "govAmount",
          "type": "uint256"
        }
      ],
      "name": "mintStable",
      "outputs": [],
      "stateMutability": "nonpayable",
      "type": "function"
    },
    {
      "inputs": [],
      "name": "onSimStableTransfer",
      "outputs": [],
      "stateMutability": "nonpayable",
      "type": "function"
    },
    {
      "inputs": [],
      "name": "pricePeg",
      "outputs": [
        {
          "internalType": "uint256",
          "name": "",
          "type": "uint256"
        }
      ],
      "stateMutability": "view",
      "type": "function"
    },
    {
      "inputs": [
        {
          "internalType": "uint256",
          "name": "collateralAmount",
          "type": "uint256"
        }
      ],
      "name": "reCollateralize",
      "outputs": [],
      "stateMutability": "nonpayable",
      "type": "function"
    },
    {
      "inputs": [
        {
          "internalType": "uint256",
          "name": "stableAmount",
          "type": "uint256"
        }
      ],
      "name": "redeemStable",
      "outputs": [],
      "stateMutability": "nonpayable",
      "type": "function"
    },
    {
      "inputs": [
        {
          "internalType": "uint256",
          "name": "_buybackRatio",
          "type": "uint256"
        }
      ],
      "name": "setBuybackRatio",
      "outputs": [],
      "stateMutability": "nonpayable",
      "type": "function"
    },
    {
      "inputs": [
        {
          "internalType": "uint256",
          "name": "_targetCR",
          "type": "uint256"
        }
      ],
      "name": "setTargetCR",
      "outputs": [],
      "stateMutability": "nonpayable",
      "type": "function"
    },
    {
      "inputs": [],
      "name": "simGov",
      "outputs": [
        {
          "internalType": "contract SimGov",
          "name": "",
          "type": "address"
        }
      ],
      "stateMutability": "view",
      "type": "function"
    },
    {
      "inputs": [],
      "name": "simGovPair",
      "outputs": [
        {
          "internalType": "address",
          "name": "",
          "type": "address"
        }
      ],
      "stateMutability": "view",
      "type": "function"
    },
    {
      "inputs": [],
      "name": "simStable",
      "outputs": [
        {
          "internalType": "contract SimStable",
          "name": "",
          "type": "address"
        }
      ],
      "stateMutability": "view",
      "type": "function"
    },
    {
      "inputs": [],
      "name": "simStablePair",
      "outputs": [
        {
          "internalType": "address",
          "name": "",
          "type": "address"
        }
      ],
      "stateMutability": "view",
      "type": "function"
    },
    {
      "inputs": [],
      "name": "targetCR",
      "outputs": [
        {
          "internalType": "uint256",
          "name": "",
          "type": "uint256"
        }
      ],
      "stateMutability": "view",
      "type": "function"
    },
    {
      "inputs": [],
      "name": "updatePrices",
      "outputs": [],
      "stateMutability": "nonpayable",
      "type": "function"
    }
  ],
  "bytecode": "0x6080604052613a986005556064600655611388600755612af8600855614e20600955670de0b6b3a7640000600c55671bc16d674ec80000600d55670de0b6b3a7640000600e5534801561005157600080fd5b50604051612e23380380612e238339818101604052810190610073919061026e565b846000806101000a81548173ffffffffffffffffffffffffffffffffffffffff021916908373ffffffffffffffffffffffffffffffffffffffff16021790555083600160006101000a81548173ffffffffffffffffffffffffffffffffffffffff021916908373ffffffffffffffffffffffffffffffffffffffff16021790555082600260006101000a81548173ffffffffffffffffffffffffffffffffffffffff021916908373ffffffffffffffffffffffffffffffffffffffff16021790555033600360006101000a81548173ffffffffffffffffffffffffffffffffffffffff021916908373ffffffffffffffffffffffffffffffffffffffff16021790555060055460048190555081600a60006101000a81548173ffffffffffffffffffffffffffffffffffffffff021916908373ffffffffffffffffffffffffffffffffffffffff16021790555080600b60006101000a81548173ffffffffffffffffffffffffffffffffffffffff021916908373ffffffffffffffffffffffffffffffffffffffff16021790555050505050506102e9565b600080fd5b600073ffffffffffffffffffffffffffffffffffffffff82169050919050565b600061023b82610210565b9050919050565b61024b81610230565b811461025657600080fd5b50565b60008151905061026881610242565b92915050565b600080600080600060a0868803121561028a5761028961020b565b5b600061029888828901610259565b95505060206102a988828901610259565b94505060406102ba88828901610259565b93505060606102cb88828901610259565b92505060806102dc88828901610259565b9150509295509295909350565b612b2b806102f86000396000f3fe608060405234801561001057600080fd5b50600436106101735760003560e01c80638422318f116100de578063b2016bd411610097578063e9aead3d11610071578063e9aead3d146103ce578063f1ea8225146103ea578063f4bcb686146103f4578063f851a4401461041257610173565b8063b2016bd414610376578063b4eae1cb14610394578063d5571f02146103b257610173565b80638422318f146102b257806384da2666146102d057806386e9deea146102ee578063886979be1461030c578063af69fcd514610328578063afa998601461034657610173565b806349dd12621161013057806349dd12621461022857806349dee285146102325780635b44f756146102505780636af8ecae1461026e578063754975331461028c578063789e13ec1461029657610173565b806305c67073146101785780631619bcd2146101965780631e43a555146101b457806337616f42146101d0578063415b3d1b146101ee578063438e865b1461020a575b600080fd5b610180610430565b60405161018d9190611ce3565b60405180910390f35b61019e610436565b6040516101ab9190611d7d565b60405180910390f35b6101ce60048036038101906101c99190611dc9565b61045c565b005b6101d861052f565b6040516101e59190611ce3565b60405180910390f35b61020860048036038101906102039190611dc9565b610535565b005b6102126105cf565b60405161021f9190611ce3565b60405180910390f35b6102306105d5565b005b61023a6106b4565b6040516102479190611ce3565b60405180910390f35b6102586106ba565b6040516102659190611e17565b60405180910390f35b6102766106de565b6040516102839190611ce3565b60405180910390f35b6102946106e4565b005b6102b060048036038101906102ab9190611e32565b6106ee565b005b6102ba610b45565b6040516102c79190611ce3565b60405180910390f35b6102d8610b4b565b6040516102e59190611ce3565b60405180910390f35b6102f6610b51565b6040516103039190611e93565b60405180910390f35b61032660048036038101906103219190611dc9565b610b77565b005b610330610f48565b60405161033d9190611e93565b60405180910390f35b610360600480360381019061035b9190611eda565b610f6e565b60405161036d9190611ce3565b60405180910390f35b61037e611208565b60405161038b9190611f3b565b60405180910390f35b61039c61122e565b6040516103a99190611ce3565b60405180910390f35b6103cc60048036038101906103c79190611dc9565b611234565b005b6103e860048036038101906103e39190611dc9565b61175f565b005b6103f2611b9a565b005b6103fc611c9e565b6040516104099190611f6f565b60405180910390f35b61041a611ca4565b6040516104279190611e93565b60405180910390f35b60075481565b600160009054906101000a900473ffffffffffffffffffffffffffffffffffffffff1681565b600360009054906101000a900473ffffffffffffffffffffffffffffffffffffffff1673ffffffffffffffffffffffffffffffffffffffff163373ffffffffffffffffffffffffffffffffffffffff16146104ec576040517f08c379a00000000000000000000000000000000000000000000000000000000081526004016104e39061200d565b60405180910390fd5b806005819055507fecb5db3eda2c602506d85855bdabdfd0ac10293b9932054f94e78dffbeaf414d6005546040516105249190611ce3565b60405180910390a150565b60065481565b600360009054906101000a900473ffffffffffffffffffffffffffffffffffffffff1673ffffffffffffffffffffffffffffffffffffffff163373ffffffffffffffffffffffffffffffffffffffff16146105c5576040517f08c379a00000000000000000000000000000000000000000000000000000000081526004016105bc9061200d565b60405180910390fd5b8060078190555050565b60055481565b6000610623600a60009054906101000a900473ffffffffffffffffffffffffffffffffffffffff1660008054906101000a900473ffffffffffffffffffffffffffffffffffffffff16610f6e565b90506000610675600b60009054906101000a900473ffffffffffffffffffffffffffffffffffffffff16600160009054906101000a900473ffffffffffffffffffffffffffffffffffffffff16610f6e565b90507f6546f60f34df611fa42503098acc39d5ab88bc73febe64b3cc14e5a92e3a66a782826040516106a892919061202d565b60405180910390a15050565b600d5481565b60008054906101000a900473ffffffffffffffffffffffffffffffffffffffff1681565b600e5481565b6106ec611b9a565b565b60008211610731576040517f08c379a0000000000000000000000000000000000000000000000000000000008152600401610728906120c8565b60405180910390fd5b60008111610774576040517f08c379a000000000000000000000000000000000000000000000000000000000815260040161076b9061215a565b60405180910390fd5b60006107c2600a60009054906101000a900473ffffffffffffffffffffffffffffffffffffffff1660008054906101000a900473ffffffffffffffffffffffffffffffffffffffff16610f6e565b90506000610814600b60009054906101000a900473ffffffffffffffffffffffffffffffffffffffff16600160009054906101000a900473ffffffffffffffffffffffffffffffffffffffff16610f6e565b9050600082670de0b6b3a76400008661082d91906121a9565b610837919061221a565b90506000670de0b6b3a7640000838661085091906121a9565b61085a919061221a565b90506000818361086a919061224b565b90508260045461087a91906121a9565b6127108261088891906121a9565b10156108c9576040517f08c379a00000000000000000000000000000000000000000000000000000000081526004016108c0906122cb565b60405180910390fd5b600260009054906101000a900473ffffffffffffffffffffffffffffffffffffffff1673ffffffffffffffffffffffffffffffffffffffff166323b872dd33308a6040518463ffffffff1660e01b8152600401610928939291906122eb565b6020604051808303816000875af1158015610947573d6000803e3d6000fd5b505050506040513d601f19601f8201168201806040525081019061096b919061235a565b6109aa576040517f08c379a00000000000000000000000000000000000000000000000000000000081526004016109a1906123d3565b60405180910390fd5b600160009054906101000a900473ffffffffffffffffffffffffffffffffffffffff1673ffffffffffffffffffffffffffffffffffffffff16639dc29fac33886040518363ffffffff1660e01b8152600401610a079291906123f3565b600060405180830381600087803b158015610a2157600080fd5b505af1158015610a35573d6000803e3d6000fd5b505050506000670de0b6b3a76400008683610a5091906121a9565b610a5a919061221a565b905060008054906101000a900473ffffffffffffffffffffffffffffffffffffffff1673ffffffffffffffffffffffffffffffffffffffff166340c10f1933836040518363ffffffff1660e01b8152600401610ab79291906123f3565b600060405180830381600087803b158015610ad157600080fd5b505af1158015610ae5573d6000803e3d6000fd5b505050503373ffffffffffffffffffffffffffffffffffffffff167f5a3358a3d27a5373c0df2604662088d37894d56b7cfd27f315770440f4e0d919898984604051610b339392919061241c565b60405180910390a25050505050505050565b60095481565b60085481565b600b60009054906101000a900473ffffffffffffffffffffffffffffffffffffffff1681565b60055460045411610bbd576040517f08c379a0000000000000000000000000000000000000000000000000000000008152600401610bb4906124c5565b60405180910390fd5b60008111610c00576040517f08c379a0000000000000000000000000000000000000000000000000000000008152600401610bf790612531565b60405180910390fd5b6000610c50600b60009054906101000a900473ffffffffffffffffffffffffffffffffffffffff16600160009054906101000a900473ffffffffffffffffffffffffffffffffffffffff16610f6e565b90506000600260009054906101000a900473ffffffffffffffffffffffffffffffffffffffff1673ffffffffffffffffffffffffffffffffffffffff166370a08231306040518263ffffffff1660e01b8152600401610caf9190611e93565b602060405180830381865afa158015610ccc573d6000803e3d6000fd5b505050506040513d601f19601f82011682018060405250810190610cf09190612566565b9050600061271060075483610d0591906121a9565b610d0f919061221a565b90506000670de0b6b3a76400008486610d2891906121a9565b610d32919061221a565b9050600081118015610d445750818111155b610d83576040517f08c379a0000000000000000000000000000000000000000000000000000000008152600401610d7a906125df565b60405180910390fd5b600160009054906101000a900473ffffffffffffffffffffffffffffffffffffffff1673ffffffffffffffffffffffffffffffffffffffff16639dc29fac33876040518363ffffffff1660e01b8152600401610de09291906123f3565b600060405180830381600087803b158015610dfa57600080fd5b505af1158015610e0e573d6000803e3d6000fd5b50505050600260009054906101000a900473ffffffffffffffffffffffffffffffffffffffff1673ffffffffffffffffffffffffffffffffffffffff1663a9059cbb33836040518363ffffffff1660e01b8152600401610e6f9291906123f3565b6020604051808303816000875af1158015610e8e573d6000803e3d6000fd5b505050506040513d601f19601f82011682018060405250810190610eb2919061235a565b610ef1576040517f08c379a0000000000000000000000000000000000000000000000000000000008152600401610ee8906123d3565b60405180910390fd5b3373ffffffffffffffffffffffffffffffffffffffff167fce6abc4aa99ab2d137d5f7e34bec0e883a186fd2d76b29f2e1c30afcc68d73368683604051610f3992919061202d565b60405180910390a25050505050565b600a60009054906101000a900473ffffffffffffffffffffffffffffffffffffffff1681565b60008060008473ffffffffffffffffffffffffffffffffffffffff16630902f1ac6040518163ffffffff1660e01b8152600401606060405180830381865afa158015610fbe573d6000803e3d6000fd5b505050506040513d601f19601f82011682018060405250810190610fe29190612681565b509150915060008573ffffffffffffffffffffffffffffffffffffffff16630dfe16816040518163ffffffff1660e01b8152600401602060405180830381865afa158015611034573d6000803e3d6000fd5b505050506040513d601f19601f8201168201806040525081019061105891906126e9565b905060008673ffffffffffffffffffffffffffffffffffffffff1663d21220a76040518163ffffffff1660e01b8152600401602060405180830381865afa1580156110a7573d6000803e3d6000fd5b505050506040513d601f19601f820116820180604052508101906110cb91906126e9565b90508173ffffffffffffffffffffffffffffffffffffffff168673ffffffffffffffffffffffffffffffffffffffff160361114a57836dffffffffffffffffffffffffffff16670de0b6b3a7640000846dffffffffffffffffffffffffffff1661113591906121a9565b61113f919061221a565b945050505050611202565b8073ffffffffffffffffffffffffffffffffffffffff168673ffffffffffffffffffffffffffffffffffffffff16036111c757826dffffffffffffffffffffffffffff16670de0b6b3a7640000856dffffffffffffffffffffffffffff166111b291906121a9565b6111bc919061221a565b945050505050611202565b6040517f08c379a00000000000000000000000000000000000000000000000000000000081526004016111f990612762565b60405180910390fd5b92915050565b600260009054906101000a900473ffffffffffffffffffffffffffffffffffffffff1681565b60045481565b60008111611277576040517f08c379a000000000000000000000000000000000000000000000000000000000815260040161126e906127ce565b60405180910390fd5b60006112c5600a60009054906101000a900473ffffffffffffffffffffffffffffffffffffffff1660008054906101000a900473ffffffffffffffffffffffffffffffffffffffff16610f6e565b90506000611317600b60009054906101000a900473ffffffffffffffffffffffffffffffffffffffff16600160009054906101000a900473ffffffffffffffffffffffffffffffffffffffff16610f6e565b90506000670de0b6b3a7640000838561133091906121a9565b61133a919061221a565b90506000600260009054906101000a900473ffffffffffffffffffffffffffffffffffffffff1673ffffffffffffffffffffffffffffffffffffffff166370a08231306040518263ffffffff1660e01b81526004016113999190611e93565b602060405180830381865afa1580156113b6573d6000803e3d6000fd5b505050506040513d601f19601f820116820180604052508101906113da9190612566565b905060008060009054906101000a900473ffffffffffffffffffffffffffffffffffffffff1673ffffffffffffffffffffffffffffffffffffffff166318160ddd6040518163ffffffff1660e01b8152600401602060405180830381865afa15801561144a573d6000803e3d6000fd5b505050506040513d601f19601f8201168201806040525081019061146e9190612566565b90506000858261147e91906121a9565b838561148a91906121a9565b611494919061221a565b9050600085670de0b6b3a7640000866114ad91906121a9565b6114b7919061221a565b90506000821180156114c95750838211155b611508576040517f08c379a00000000000000000000000000000000000000000000000000000000081526004016114ff9061283a565b60405180910390fd5b60008054906101000a900473ffffffffffffffffffffffffffffffffffffffff1673ffffffffffffffffffffffffffffffffffffffff16639dc29fac338a6040518363ffffffff1660e01b81526004016115639291906123f3565b600060405180830381600087803b15801561157d57600080fd5b505af1158015611591573d6000803e3d6000fd5b50505050600260009054906101000a900473ffffffffffffffffffffffffffffffffffffffff1673ffffffffffffffffffffffffffffffffffffffff1663a9059cbb33846040518363ffffffff1660e01b81526004016115f29291906123f3565b6020604051808303816000875af1158015611611573d6000803e3d6000fd5b505050506040513d601f19601f82011682018060405250810190611635919061235a565b611674576040517f08c379a000000000000000000000000000000000000000000000000000000000815260040161166b906123d3565b60405180910390fd5b600160009054906101000a900473ffffffffffffffffffffffffffffffffffffffff1673ffffffffffffffffffffffffffffffffffffffff166340c10f1933836040518363ffffffff1660e01b81526004016116d19291906123f3565b600060405180830381600087803b1580156116eb57600080fd5b505af11580156116ff573d6000803e3d6000fd5b505050503373ffffffffffffffffffffffffffffffffffffffff167f484c40561359f3e3b8be9101897f8680aa82fbe1df9fd9038e0dbc628403264689848460405161174d9392919061241c565b60405180910390a25050505050505050565b600554600454106117a5576040517f08c379a000000000000000000000000000000000000000000000000000000000815260040161179c906128cc565b60405180910390fd5b600081116117e8576040517f08c379a00000000000000000000000000000000000000000000000000000000081526004016117df9061283a565b60405180910390fd5b60008060009054906101000a900473ffffffffffffffffffffffffffffffffffffffff1673ffffffffffffffffffffffffffffffffffffffff166318160ddd6040518163ffffffff1660e01b8152600401602060405180830381865afa158015611856573d6000803e3d6000fd5b505050506040513d601f19601f8201168201806040525081019061187a9190612566565b905060006127106005548361188f91906121a9565b611899919061221a565b90506000600260009054906101000a900473ffffffffffffffffffffffffffffffffffffffff1673ffffffffffffffffffffffffffffffffffffffff166370a08231306040518263ffffffff1660e01b81526004016118f89190611e93565b602060405180830381865afa158015611915573d6000803e3d6000fd5b505050506040513d601f19601f820116820180604052508101906119399190612566565b9050600081831161194b576000611958565b818361195791906128ec565b5b90508085111561199d576040517f08c379a00000000000000000000000000000000000000000000000000000000081526004016119949061296c565b60405180910390fd5b600260009054906101000a900473ffffffffffffffffffffffffffffffffffffffff1673ffffffffffffffffffffffffffffffffffffffff166323b872dd3330886040518463ffffffff1660e01b81526004016119fc939291906122eb565b6020604051808303816000875af1158015611a1b573d6000803e3d6000fd5b505050506040513d601f19601f82011682018060405250810190611a3f919061235a565b611a7e576040517f08c379a0000000000000000000000000000000000000000000000000000000008152600401611a75906123d3565b60405180910390fd5b6000859050600160009054906101000a900473ffffffffffffffffffffffffffffffffffffffff1673ffffffffffffffffffffffffffffffffffffffff166340c10f1933836040518363ffffffff1660e01b8152600401611ae09291906123f3565b600060405180830381600087803b158015611afa57600080fd5b505af1158015611b0e573d6000803e3d6000fd5b5050505060008684611b20919061224b565b90508561271082611b3191906121a9565b611b3b919061221a565b6004819055503373ffffffffffffffffffffffffffffffffffffffff167f3f90e8db07601c50d4d8cbb218397ba5f0946c7529532c18d7d3b6ac1a3065af8884604051611b8992919061202d565b60405180910390a250505050505050565b6000611be8600a60009054906101000a900473ffffffffffffffffffffffffffffffffffffffff1660008054906101000a900473ffffffffffffffffffffffffffffffffffffffff16610f6e565b9050600081600e54611bfa919061298c565b90506000670de0b6b3a764000082600654611c1591906129cf565b611c1f9190612a47565b9050600081600454611c319190612ab1565b9050600c54811215611c4757600c549050611c58565b600d54811315611c5757600d5490505b5b806004819055507f93bddf3447349b9704024bb21fbbb43e3ab1fda2d05b47cc05434ea7cc9ce5cc600454604051611c909190611ce3565b60405180910390a150505050565b600c5481565b600360009054906101000a900473ffffffffffffffffffffffffffffffffffffffff1681565b6000819050919050565b611cdd81611cca565b82525050565b6000602082019050611cf86000830184611cd4565b92915050565b600073ffffffffffffffffffffffffffffffffffffffff82169050919050565b6000819050919050565b6000611d43611d3e611d3984611cfe565b611d1e565b611cfe565b9050919050565b6000611d5582611d28565b9050919050565b6000611d6782611d4a565b9050919050565b611d7781611d5c565b82525050565b6000602082019050611d926000830184611d6e565b92915050565b600080fd5b611da681611cca565b8114611db157600080fd5b50565b600081359050611dc381611d9d565b92915050565b600060208284031215611ddf57611dde611d98565b5b6000611ded84828501611db4565b91505092915050565b6000611e0182611d4a565b9050919050565b611e1181611df6565b82525050565b6000602082019050611e2c6000830184611e08565b92915050565b60008060408385031215611e4957611e48611d98565b5b6000611e5785828601611db4565b9250506020611e6885828601611db4565b9150509250929050565b6000611e7d82611cfe565b9050919050565b611e8d81611e72565b82525050565b6000602082019050611ea86000830184611e84565b92915050565b611eb781611e72565b8114611ec257600080fd5b50565b600081359050611ed481611eae565b92915050565b60008060408385031215611ef157611ef0611d98565b5b6000611eff85828601611ec5565b9250506020611f1085828601611ec5565b9150509250929050565b6000611f2582611d4a565b9050919050565b611f3581611f1a565b82525050565b6000602082019050611f506000830184611f2c565b92915050565b6000819050919050565b611f6981611f56565b82525050565b6000602082019050611f846000830184611f60565b92915050565b600082825260208201905092915050565b7f4f6e6c792061646d696e2063616e2063616c6c20746869732066756e6374696f60008201527f6e00000000000000000000000000000000000000000000000000000000000000602082015250565b6000611ff7602183611f8a565b915061200282611f9b565b604082019050919050565b6000602082019050818103600083015261202681611fea565b9050919050565b60006040820190506120426000830185611cd4565b61204f6020830184611cd4565b9392505050565b7f436f6c6c61746572616c206d7573742062652067726561746572207468616e2060008201527f7a65726f00000000000000000000000000000000000000000000000000000000602082015250565b60006120b2602483611f8a565b91506120bd82612056565b604082019050919050565b600060208201905081810360008301526120e1816120a5565b9050919050565b7f53696d476f7620616d6f756e74206d757374206265206772656174657220746860008201527f616e207a65726f00000000000000000000000000000000000000000000000000602082015250565b6000612144602783611f8a565b915061214f826120e8565b604082019050919050565b6000602082019050818103600083015261217381612137565b9050919050565b7f4e487b7100000000000000000000000000000000000000000000000000000000600052601160045260246000fd5b60006121b482611cca565b91506121bf83611cca565b92508282026121cd81611cca565b915082820484148315176121e4576121e361217a565b5b5092915050565b7f4e487b7100000000000000000000000000000000000000000000000000000000600052601260045260246000fd5b600061222582611cca565b915061223083611cca565b9250826122405761223f6121eb565b5b828204905092915050565b600061225682611cca565b915061226183611cca565b92508282019050808211156122795761227861217a565b5b92915050565b7f496e73756666696369656e7420636f6c6c61746572616c000000000000000000600082015250565b60006122b5601783611f8a565b91506122c08261227f565b602082019050919050565b600060208201905081810360008301526122e4816122a8565b9050919050565b60006060820190506123006000830186611e84565b61230d6020830185611e84565b61231a6040830184611cd4565b949350505050565b60008115159050919050565b61233781612322565b811461234257600080fd5b50565b6000815190506123548161232e565b92915050565b6000602082840312156123705761236f611d98565b5b600061237e84828501612345565b91505092915050565b7f436f6c6c61746572616c207472616e73666572206661696c6564000000000000600082015250565b60006123bd601a83611f8a565b91506123c882612387565b602082019050919050565b600060208201905081810360008301526123ec816123b0565b9050919050565b60006040820190506124086000830185611e84565b6124156020830184611cd4565b9392505050565b60006060820190506124316000830186611cd4565b61243e6020830185611cd4565b61244b6040830184611cd4565b949350505050565b7f4275796261636b206e6f7420616c6c6f7765643a2043522062656c6f7720746160008201527f7267657400000000000000000000000000000000000000000000000000000000602082015250565b60006124af602483611f8a565b91506124ba82612453565b604082019050919050565b600060208201905081810360008301526124de816124a2565b9050919050565b7f496e76616c69642053696d476f7620616d6f756e740000000000000000000000600082015250565b600061251b601583611f8a565b9150612526826124e5565b602082019050919050565b6000602082019050818103600083015261254a8161250e565b9050919050565b60008151905061256081611d9d565b92915050565b60006020828403121561257c5761257b611d98565b5b600061258a84828501612551565b91505092915050565b7f496e76616c6964206275796261636b20616d6f756e7400000000000000000000600082015250565b60006125c9601683611f8a565b91506125d482612593565b602082019050919050565b600060208201905081810360008301526125f8816125bc565b9050919050565b60006dffffffffffffffffffffffffffff82169050919050565b612622816125ff565b811461262d57600080fd5b50565b60008151905061263f81612619565b92915050565b600063ffffffff82169050919050565b61265e81612645565b811461266957600080fd5b50565b60008151905061267b81612655565b92915050565b60008060006060848603121561269a57612699611d98565b5b60006126a886828701612630565b93505060206126b986828701612630565b92505060406126ca8682870161266c565b9150509250925092565b6000815190506126e381611eae565b92915050565b6000602082840312156126ff576126fe611d98565b5b600061270d848285016126d4565b91505092915050565b7f546f6b656e206e6f7420696e2070616972000000000000000000000000000000600082015250565b600061274c601183611f8a565b915061275782612716565b602082019050919050565b6000602082019050818103600083015261277b8161273f565b9050919050565b7f496e76616c696420737461626c6520616d6f756e740000000000000000000000600082015250565b60006127b8601583611f8a565b91506127c382612782565b602082019050919050565b600060208201905081810360008301526127e7816127ab565b9050919050565b7f496e76616c696420636f6c6c61746572616c20616d6f756e7400000000000000600082015250565b6000612824601983611f8a565b915061282f826127ee565b602082019050919050565b6000602082019050818103600083015261285381612817565b9050919050565b7f52652d636f6c6c61746572616c697a6174696f6e206e6f74207265717569726560008201527f6400000000000000000000000000000000000000000000000000000000000000602082015250565b60006128b6602183611f8a565b91506128c18261285a565b604082019050919050565b600060208201905081810360008301526128e5816128a9565b9050919050565b60006128f782611cca565b915061290283611cca565b925082820390508181111561291a5761291961217a565b5b92915050565b7f436f6c6c61746572616c20657863656564732073686f727466616c6c00000000600082015250565b6000612956601c83611f8a565b915061296182612920565b602082019050919050565b6000602082019050818103600083015261298581612949565b9050919050565b600061299782611f56565b91506129a283611f56565b92508282039050818112600084121682821360008512151617156129c9576129c861217a565b5b92915050565b60006129da82611f56565b91506129e583611f56565b92508282026129f381611f56565b91507f80000000000000000000000000000000000000000000000000000000000000008414600084121615612a2b57612a2a61217a565b5b8282058414831517612a4057612a3f61217a565b5b5092915050565b6000612a5282611f56565b9150612a5d83611f56565b925082612a6d57612a6c6121eb565b5b600160000383147f800000000000000000000000000000000000000000000000000000000000000083141615612aa657612aa561217a565b5b828205905092915050565b6000612abc82611f56565b9150612ac783611f56565b925082820190508281121560008312168382126000841215161715612aef57612aee61217a565b5b9291505056fea2646970667358221220944b790379c99e26cfd63adcc7d92f1eae98cb1b95bd935bd9f99032b656e79564736f6c634300081c0033",
  "linkReferences": {},
  "deployedLinkReferences": {}
}